:100000000C945D060C94A4060C94A4060C942E3358
:100010000C94A4060C94A4060C94A4060C94A406B8
:100020000C94A4060C94A4060C940F190C944B1871
:100030000C941D270C94A4060C94A4060C94A406FE
:100040000C94A4060C94A4060C94A4060C94A40688
:100050000C94A4060C94D0260C94A4060C94A4062C
:100060000C94A4060C94A4060C94A4060C94A40668
:100070000C94A4060C94A4060C94A4060C94A40658
:100080000C94A4060C94A4060C94A4060C94A40648
:100090000C94A4060C94A4060C94A4060C94A40638
:1000A0000C94A4060C94A4060C94A406E60BE90B8D
:1000B0000B0C180C1F0C3F0C420C760C980C350DD9
:1000C000350DA30CA50CA90CCD0CEE0CF10CF40C09
:1000D000160D78107E108D108F10931095109710BC
:1000E000B6109E10A51070127012A612A6122D1432
:1000F0002D142D142D141F139513A813A8135D167A
:1001000084162D1884162D18D016F3162D18E817FE
:10011000F8171D221D2230223022262230223022C2
:1001200030221D221D222B22302230222B2200DAE7
:100130000281FFD9F1DB20A4A62EAF00A0C000A150
:10014000C800AED580A81FD300408D1420007F3F8B
:100150001F643214783C1E1E140A056162636465D4
:10016000666768696A6B6C6D6E6F707172737475B7
:10017000767778797A3132333435363738393052C8
:100180004542545F2D3D5B5D5C233B27602C2E2F49
:1001900020202700204B00202043004B6579203A87
:1001A0002020520020204400303020205300202006
:1001B0002020204350490042616C6C3A00808182CB
:1001C000838485868788898A8B8C8D8E8F90919287
:1001D0009394A0A1A2A3A4A5A6A7A8A9AAABACADDD
:1001E000AEAFB0B1B2B3B4C0C1C2C3C4C5C6C7C854
:1001F000C9CACBCCCDCECFD0D1D2D3D40000000051
:1002000000000000000000000000000000000000EE
:1002100000000000000000000000000000000000DE
:10022000007E0F00D4FFFFFFC70000007800000031
:1002300000000000002A2B28000000000000000041
:10024000000000000000000029000000002C1E3407
:1002500020212224342627252E362D3738271E1F0D
:10026000202122232425263333362E37381F040538
:10027000060708090A0B0C0D0E0F101112131415A6
:10028000161718191A1B1C1D2F3130232D35040584
:10029000060708090A0B0C0D0E0F10111213141586
:1002A000161718191A1B1C1D2F3130354C05010962
:1002B00002A10185020901A10005091901290815FA
:1002C00000250195087501810205010930093115E4
:1002D00081257F95027508810609381581257F954E
:1002E0000175088106050C0A38021581257F9501E4
:1002F00075088106C0C00660FF0961A10109621589
:100300000026FF009520750881020963150026FF6D
:1003100000952075089102C005010906A101050795
:1003200019E029E71500250195087501810295015D
:10033000750881010507190029FF150026FF0095A2
:1003400006750881000508190129059505750191B3
:1003500002950175039101C009025B00030100A031
:10036000FA09040000010301010009211101000143
:100370002240000705810308000A09040100020366
:10038000000000092111010001222200070582035B
:1003900020000107050303200001090402000103F6
:1003A0000000000921110100012249000705840312
:1003B00020000A1201000200000008575900020143
:1003C000000102000114034B006500790062006126
:1003D000006C006C00330039000000100359006FFE
:1003E0000077006B006500650073000000040309DE
:1003F000040000000000003E5B4F5B3E003E6B4F80
:100400006B3E001C3E7C3E1C00183C7E3C18001CD1
:10041000577D571C001C5E7F5E1C0000183C1800B6
:1004200000FFE7C3E7FF00001824180000FFE7DB28
:10043000E7FF0030483A060E0026297929260040B9
:100440007F05050700407F05253F005A3CE73C5AE1
:10045000007F3E1C1C0800081C1C3E7F0014227FED
:100460002214005F5F005F5F0006097F017F0000CC
:100470006689956A0060606060600094A2FFA29443
:100480000008047E04080010207E20100008082ABE
:100490001C0800081C2A0808001E10101010000C70
:1004A0001E0C1E0C0030383E383000060E3E0E0684
:1004B0000000000000000000005F000000000700D6
:1004C000070000147F147F1400242A7F2A120023BF
:1004D00013086462003649562050000008070300E4
:1004E00000001C224100000041221C00002A1C7F49
:1004F0001C2A0008083E0808000080703000000830
:1005000008080808000000606000002010080402CD
:10051000003E5149453E0000427F4000007249497B
:100520004946002141494D33001814127F1000271D
:1005300045454539003C4A494931004121110907E7
:1005400000364949493600464949291E0000001431
:100550000000000040340000000008142241001494
:100560001414141400004122140800020159090651
:10057000003E415D594E007C1211127C007F4949BA
:100580004936003E41414122007F4141413E007FCA
:1005900049494941007F09090901003E4141517320
:1005A000007F0808087F0000417F41000020404193
:1005B0003F01007F08142241007F40404040007FFF
:1005C000021C027F007F0408107F003E4141413E33
:1005D000007F09090906003E4151215E007F09198B
:1005E00029460026494949320003017F0103003FA3
:1005F0004040403F001F2040201F003F4038403F08
:10060000006314081463000304780403006159496B
:100610004D4300007F4141410002040810200000CA
:100620004141417F0004020102040040404040403B
:10063000000003070800002054547840007F28443D
:10064000443800384444442800384444287F003863
:10065000545454180000087E0902001824241C7801
:10066000007F080404780000447D400000204040E2
:100670003D00007F102844000000417F4000007CC6
:1006800004780478007C0804047800384444443832
:10069000007C1824241800182424187C007C0804EA
:1006A00004080048545454240004043F4424003CEB
:1006B0004040207C001C2040201C003C4030403C3E
:1006C000004428102844004C9090907C00446454CE
:1006D0004C44000008364100000000770000000094
:1006E00041360800000201020402003C2623263C99
:1006F00000000000000000000000000000000000FA
:10070000000000000000000000C0F0F88C86C6E782
:10071000FFFFFFFFFFFFFEFCFCF8E080000000F0A1
:10072000F0F00000C0E0F070700000000000000079
:10073000000000000000000000000000000000F8C1
:10074000F8F80000000000000000000000000000B9
:100750000000000000F8F8F80000F8F8F8000000C9
:10076000000000000000000000000000000000E0A9
:10077000F0F0F0E0ECEEF7F37020007C7C7C7E0083
:100780007E7E7E7F7F7F000080C0E07E5B4F5BFED1
:10079000C00000C000DCD7DEDEDED7DC00C0000019
:1007A0000000000000000000000000000000000049
:1007B0000000000000000000000000000000000039
:1007C000000080E07078686C64C7C7C7C7C7C7E718
:1007D0003F1F0F3FFFFFFFFFFFFF3F0F000000FF26
:1007E000FFFF1E3FFFF3E1800000F8FCFE363636C7
:1007F0003EBCB8000E3EFEF080F0FE3E0E0000FF54
:10080000FFFF060606FEFEFC7000E6F6F63636FE34
:10081000FEFC000000FFFFFF0000FFFFFF000000E4
:100820000000000000000000000000000000000FB9
:100830001F3F7F7F7F7F7F3F1E0C001F1F1F3F00DA
:100840003F3F3F7F7F7F00307B7F783020203078B4
:100850007F3B0003000F7F0F0F0F7F0F000300008F
:100860000000000000000000000000000000000088
:100870000000000000000000000000000000000078
:10088000003C7F6360E0C0C0C0C0C0C0C0C0FFFF0C
:10089000C06030180F0303030100000000000003D4
:1008A0000303000000030303030001030303030326
:1008B000030301007070393F1F07010000000001B1
:1008C0000303030303030301000001030303030302
:1008D0000301000000030303000003030300000002
:1008E0000000000000000000000000000000000008
:1008F00000000000000000000000000000000000F8
:1009000000000000000000000000000000000000E7
:1009100000000000000000000000000000000000D7
:1009200000000000000000000000000000000000C7
:10093000002223252628292A2C2D2F303233353624
:10094000383A3B3D3E4042434547494A4C4E505160
:10095000535557595A5C5E6062646668696B6D6F87
:1009600071737577797B7D7F81838587898A8C8E8A
:1009700090929496989A9C9E9FA1A3A5A7A8AAAC92
:10098000AEAFB1B3B4B6B8B9BBBCBEBFC1C2C3C5CC
:10099000C6C7C9CACBCCCDCED0D1D2D2D3D4D5D66E
:1009A000D7D7D8D9D9DADADBDBDBDCDCDCDCDCDDA1
:1009B000DDDDDDDCDCDCDCDCDBDBDBDADAD9D9D885
:1009C000D7D7D6D5D4D3D2D2D1D0CECDCCCBCAC91D
:1009D000C7C6C5C3C2C1BFBEBCBBB9B8B6B4B3B14C
:1009E000AFAEACAAA8A7A5A3A19F9E9C9A989694E7
:1009F00092908E8C8A89878583817F7D7B797775BC
:100A000073716F6D6B6968666462605E5C5A59579A
:100A1000555351504E4C4A4947454342403E3D3B59
:100A20003A3836353332302F2D2C2A2928262523E3
:100A30002200AF00AE14001A0008001500170000D5
:100A40000004001600070009000A0000001D001B3A
:100A5000000600190005000000E000E300E200913C
:100A6000412C429043130012000C0018001C00009F
:100A70000033000F000E000D000B0000003800379F
:100A8000003600100011000000E500E700E60091CC
:100A90004128422A0014021A020802150217020015
:100AA0000004021602070209020A0200001D021BCE
:100AB000020602190205020000E000E300E2000164
:100AC0000001000100130212020C0218021C0200B5
:100AD0000034000F020E020D020B02000038023734
:100AE000023602100211020000E500E700E60001F4
:100AF0000001000100010024002500260001000083
:100B00000001002100220023003302000001001E2A
:100B1000001F0020002D0200000100270037000107
:100B2000000100010001004F0052005000010000D0
:100B300000F600F5005100F4004B00000001000138
:100B400000010001004E0000000100010001000151
:100B50000001004C00C25C01000100010001000026
:100B600000C35CC55CC75CC95CAD5D0000C45CC60D
:100B70005CC85CCA5CAE5D0000005CA55D01000164
:100B80000001000100D15CD05CCF5CCE5CCD5C008C
:100B9000005D5DD55CD45CD35CD25C0000A65DA931
:100BA0005DA75DA85DAA5D0000005CA55D01000178
:100BB0000001000100000101010101010101010228
:100BC00002020202020202020303030303030303FD
:100BD00004040404040404050505050506060606C8
:100BE00006070707070708080808090909090A0A84
:100BF0000A0B0B0B0C0C0C0D0D0D0E0E0E0F0F0F28
:100C000010101111111212131314141515161617B2
:100C100017181819191A1A1B1B1C1D1D1E1E1F2020
:100C200020212222232424252626272829292A2B6D
:100C30002C2D2D2E2F303132323334353637383992
:100C40003A3B3C3D3E3F404142434445464748498C
:100C50004A4C4D4E4F50515354555658595A5B5D5E
:100C60005E5F616264656668696B6C6D6F707273FC
:100C70007577787A7B7D7E8082838587888A8C8E63
:100C80008F91939596989A9C9EA0A2A3A5A7A9AB95
:100C9000ADAFB1B3B5B7BABCBEC0C2C4C6C9CBCD87
:100CA000CFD1D4D6D8DBDDDFE2E4E7E9EBEEF0F339
:100CB000F5F8FAFDFFFFAA7F554011241FBECFEFC4
:100CC000DAE0DEBFCDBF04B603FE27C080910F0679
:100CD00090911006A0911106B09112068730904BAA
:100CE000A740B04BD1F410920F061092100610924C
:100CF00011061092120614BE84B7877F84BF0FB608
:100D0000F894A895809160008861809360001092AB
:100D100060000FBEE0E0F8E3099511E0A0E0B1E06B
:100D2000E4EEFAE602C005900D92A23EB107D9F7B3
:100D300026E0A2EEB1E001C01D92AF30B207E1F7AC
:100D40000E94A6060C9470350C940000CF93DF939C
:100D5000CDB7DEB7E0970FB6F894DEBF0FBECDBFBC
:100D600084B7877F84BF0FB6F894A8958091600000
:100D7000886180936000109260000FBE90E080E870
:100D80000FB6F89480936100909361000FBE85B711
:100D9000806885BF85B7806885BF87E69AE19093B4
:100DA000E3018093E2010E948F180E94AE188091A7
:100DB000E20084608093E200789480916B02882343
:100DC000A1F01091E9001F709091EC00892F8170C3
:100DD00090FD80E8182B1092E9008091E80083FDD7
:100DE0000E9473151F701093E90082E084BD93E0A8
:100DF00095BD9AEF97BD80936E001092E501109219
:100E0000E6011092E7011092E8010E948828811102
:100E100002C00E9479280E94301D809300018091B9
:100E20000001882321F010928E0188E103C088E13F
:100E300080938E0180938F010E949E1C81110E94DD
:100E4000E8328091000180910001882311F090E048
:100E500001C094E09093F40184E0891B8093F30136
:100E600006E911E0D8018D918D018F3F11F00E94AC
:100E7000461DB1E00A391B07A9F70EE911E0F80198
:100E800081918F018F3F11F00E94461DF1E0043ADD
:100E90001F07A9F788E0E7E2F2E0DF01A82E1D9224
:100EA000AA94E9F7EBEEF1E0DF011D928A95E9F7EC
:100EB0000E94D41E811102C00E94B22082E090E004
:100EC0000E94CA3480931E0284E090E00E94CA34DB
:100ED000182F82E290E00E94CA34212F30E0382B94
:100EE0003093EA012093E9010E94E81EEFE3FCE958
:100EF0003197F1F700C000000E94E81E80912702A0
:100F000080FF08C06FEF7FEF80E090E00E94FC342C
:100F10000E94BF2683E090E00E94CA340E9493247E
:100F2000809175020E94DA2A91E0833009F090E006
:100F3000892F0E943E2B0E949E1C811102C00E949C
:100F4000EB320E949E1C811102C082E001C080E051
:100F50008093190280E8809376020E947C316DE0D4
:100F600070E081E491E00E944A15892B09F043C0AA
:100F70008091190263E070E081FD3AC08EE391E058
:100F80000E944A15892BB9F56DE070E08EE291E080
:100F90000E944A15892B79F50E940527DC01CB01B7
:100FA000805A9541AF4FBF4F8093E7059093E80576
:100FB000A093E905B093EA05E9E7F2E080E092E06A
:100FC000DF019C011D9221503040E1F7F093800435
:100FD000E0937F048FEF9FEF9093780280937702E6
:100FE00081E08093EC058093EB0510921A0203C018
:100FF0008BE391E0C5CF8091F501811138C00E944B
:10100000D41E811104C00E94B2200E94512D88E09C
:1010100090E00E94D2346093E2057093E3058093E0
:10102000E4059093E5058091500583608093500519
:101030006E7F71F40E94512D88E090E00E94D234BE
:101040006093E2057093E3058093E4059093E505D2
:101050000E94032D0E94B9288091E20580FF04C000
:1010600060E086950E94BE2F81E08093F5010E948A
:10107000E7290E949E1C81112EC089E19BE290937A
:101080005A018093590124E130E0309355012093B7
:10109000540184E390E090935801809357014BED05
:1010A00058E2509364014093630130935F012093B1
:1010B0005E0190936201809361014AE35BE2509389
:1010C0006E0140936D013093690120936801909304
:1010D0006C0180936B010E94D41E882391F08FE0F5
:1010E00090E00E94D234162F072F862F8F770E9410
:1010F000202B111F1127111F0370000F102B1093AD
:101100004C0280E00E94EE2A8FE691E09093EE057B
:101110008093ED0544244394512CAE014F5F5F4F03
:101120007A0180916B02853009F04EC000E112E136
:1011300080916B02853009F041C080916B02843050
:1011400041F10E94E7270E94072F1092EF0568E106
:1011500070E080E40FB6F894A895609360000FBE2D
:101160008093600083B7817F846083BF83B7816091
:1011700083BF7894889583B78E7F83BF0FB6F8942A
:10118000A895809160008861809360001092600053
:101190000FBE80916A02882309F4CACF0E94E81E1C
:1011A000E7E2F2E0ACEAB1E091918D91892309F098
:1011B00063C592E0EF32F907B9F7BACF10925E0239
:1011C0000E949B240E9460270E94E81E982E811195
:1011D0000E94052717E2A12E12E0B12EACEAB1E081
:1011E000BCA7ABA72FE132E0AD01D50100E010E0D4
:1011F000702EDD90FA018191AF01D822F901819121
:101200009F018D2549F1812CCC24C394982F9C21DA
:10121000F1F00E949E1C882399F089A27AA2DC201A
:1012200081E009F480E08BA30E9411278160782F70
:101230009DA38CA349A15AA16BA18DA10E94302A24
:10124000F801E15EFD4F8081C826C0821AC08394F8
:10125000CC0CF6E08F12DACF0F5F1F4F083011056C
:1012600039F68FEF8EA38FA318A60E9411278160F5
:10127000782F9AA789A74EA15FA168A58AA50E9489
:10128000302A80914F05882309F492C080914E0541
:10129000E091E205E695E81BE0934A05823059F4B7
:1012A000F0E0E95AFE4FE4910E2F10E0B9EF6B2EFB
:1012B000B5E27B2E2EC0863059F4F0E0EC5AFE4F9A
:1012C000E4910E2F10E0A9EE6A2EA5E27A2E21C03D
:1012D000893061F4E695F0E0EF5AFE4FE4910E2F6D
:1012E00010E0FBEA6F2EF5E27F2E13C08F3059F429
:1012F000F0E0E25BFE4FE4910E2F10E0E2E26E2E92
:10130000E5E27E2E06C000ED17E076ED672E74E272
:10131000772E80914B05882361F010924B050E9437
:10132000DF1E909349058093480510924D05109259
:101330004C050E94DF1EE0914805F09149059C0193
:101340002E1B3F0B2F3F3F4798F52091F80122239A
:10135000B1F01092F8012091F6013091F701821B53
:10136000930B8F3F9F4758F4205D3A483093F70125
:101370002093F60180915005886080935005C090BD
:101380004C05D0904D050E0F1F1F1093490500937B
:10139000480588E495E0F301099580914C0590910A
:1013A0004D05892B29F4CD2819F081E08093F801AF
:1013B0008091EC05882309F4B1C180911B029091C2
:1013C0001C020E94F626C29708F4A6C00E941127AC
:1013D00090931C0280931B0289E792E09093800413
:1013E00080937F040E949E1C882309F491C0009181
:1013F000520210915302D02E8BE991E00E94021507
:10140000809155028F708A3010F4805D01C0895A36
:101410000E94821487E991E00E9402158091540293
:101420008F708A3010F4805D01C0895A0E94821446
:10143000DD20B9F084E991E00E940215802F8295A9
:101440008F708A3010F4805D01C0895A0E94821426
:10145000802F8F708A3010F4805D01C0895A0E94FD
:1014600082148CEF800F853360F480E991E00E9454
:101470000215F801FF27E95AFE4F84910E94821459
:1014800003C081E00E94272887EB91E00E940215AB
:10149000809158020E94632B0E941015809159027E
:1014A0000E94632B0E94101580915B020E94632BA7
:1014B0000E94101580915A020E94632B0E94101501
:1014C0008EEA91E00E94021580914502811101C0CF
:1014D00085E00E94632B01960E94101588EA91E036
:1014E0000E94021580914702882311F081E301C018
:1014F00080E30E94821484EA91E00E9402158091A8
:101500004C02811101C084E0805D0E94821404C0FD
:101510008DEB91E00E9402158091EC05882309F47F
:10152000E2C020917702309178022115310509F44B
:10153000DAC080911A028111D6C0282E312C6201A6
:10154000082E02C0CC0CDD1C0A94E2F7A9014C2144
:101550005D21452B11F48F5FF0CF9091190291011D
:1015600065E0220F331F6A95E1F790FD12C0829566
:10157000880F807680937D01220F232F221F330B4B
:10158000319520938001815E80937E0110928101CC
:1015900012C045E0369527954A95E1F7220F220FB4
:1015A000220F20937D0110928001295F20937E01FC
:1015B00083E08093810124E630E047E050E06BE770
:1015C00071E088E70E943332892B09F08CC080914A
:1015D000190280FD23C0C10125E0880F991F2A95BB
:1015E000E1F7AC0147585D4F04E610E020E230E03F
:1015F00060E488E70E945A32892B09F074C00E9487
:101600000128C094D0948091770290917802C822EA
:10161000D922D0927802C092770265C080E2E9EFC9
:10162000F1E0DF011D928A95E9F795E0220C331C69
:101630009A95E1F7E8EAF1E0F8ABEFA744EA51E068
:10164000AFA5B8A98D91B8ABAFA7FA019191AF0141
:101650009101290F311DB90167587D4F7EA76DA7F4
:1016600090E087509E4FFC0107E09F01281B390B3B
:10167000742C01C0770C2A95EAF76DA57EA5812C04
:10168000DB011D91BD011721202F28192770622E23
:10169000022E000C330BB12F01C0BB0F6A94EAF786
:1016A0006B2E3195219531092770332701C016958E
:1016B0002A95EAF7612A1081612A6082839428E0E2
:1016C0008212DECF015031960F3F79F66FA578A9CF
:1016D0006C5A714009F0B4CF04E610E020E230E02B
:1016E00049EF51E085CF8091EB058823B9F00E9446
:1016F00005270091E7051091E8052091E905309153
:10170000EA05DC01CB01801B910BA20BB30B8F3FD1
:101710009F4FAF4FBF4710F40E94E72791100E94E0
:1017200001280E94072F0E94602790911D028917AF
:1017300021F00E94602780931D0280916B0284300B
:1017400009F0B9C183E08093E9008091E80082FF4D
:10175000B2C18091E80085FF23C00E94E619811183
:101760001DC080E2C82ED12C8E010F5F1F4F09C013
:101770008091F100D8018D938D01B1E0CB1AD10891
:1017800069F08091E80085FDF3CF8091E8008B77C8
:101790008093E8000E94E619882399F391E001C044
:1017A00090E08091E8008B778093E800992309F41A
:1017B00082C1E9818E2F90E0FC013197E331F10580
:1017C00008F053C1EA5AFF4F0C9440351A8289E061
:1017D000ADC08A81823009F467C2833051F0813014
:1017E00009F043C10E9405279B838C837D836E8310
:1017F0003EC1FE0133962FE232E0D5019D915D019D
:10180000ABA5BCA58D91BCA7ABA7892381932A1555
:101810003B0599F72CC18A81823009F026C16B8182
:101820007C818D819E810E9446350E9457281FC170
:101830004C816B818A810E94B4279D833CC20D81BB
:101840001E811027012710278C81CB809A81BCE054
:10185000CB9E60011124E0E69E9FC00CD11C112498
:10186000C80ED11CC80ED11C612FC60187960E94DC
:10187000DE34602FC60188960E94DE34F8C00E94D4
:101880008027F5C08A818138B1F050F4803809F0A2
:10189000EEC020E04B816091E4058091E30523C018
:1018A0008238E9F0833809F0E2C020E04091E50594
:1018B0006C818B8118C060E08B810E94BE2F8B8170
:1018C000811103C00E94A72FD2C08091E2058160E0
:1018D0008093E20560E086950E94BE2FC8C08B8190
:1018E0008093E605C4C00E941C2EC1C08A81813845
:1018F00099F030F4803809F0BAC08091E50516C03F
:10190000823891F0833809F0B2C08091E3058B836F
:101910008091E4058C83ABC08091E20580FF02C01A
:10192000869504C080E002C08091E6058B839FC04D
:101930006091E2057091E3058091E4059091E505E1
:101940000E941D2D94C080E14DC082E08A8389E50C
:10195000EDCF0A811B81102701271027CC80D12CC5
:101960005701C80189559E4F95012E193F092C1525
:101970003D0508F07CC00935F2E01F0730F40E94F5
:10198000CA34D50114968C9302C0F50114820F5FFE
:101990001F4FFFEFAF1ABF0AE4CF0A811B81102748
:1019A00001271027CC80D12C5701C80189559E4FA3
:1019B00095012E193F092C153D0508F058C0093531
:1019C00022E0120728F4D50114966C910E94DE34AF
:1019D0000F5F1F4FBFEFAB1ABB0AE7CF0E94702704
:1019E00046C084E08A8343C00A811B8110270127F7
:1019F0001027CC80D12C5701C801879695012E194C
:101A00003F092C153D0598F50038E1E01E0730F43C
:101A10000E94CA34D50114968C9302C0F501148239
:101A20000F5F1F4FFFEFAF1ABF0AE6CF0A811B817E
:101A3000102701271027CC80D12C5701C801879689
:101A400095012E193F092C153D0588F4003821E039
:101A5000120728F4D50114966C910E94DE340F5FB2
:101A60001F4FBFEFAB1ABB0AE9CF8FEF898380917D
:101A70006B02843001F51091E9001F709091EC0029
:101A8000892F817090FD80E8182B82E08093E90017
:101A90008091E80080FF0CC040E050E060E270E020
:101AA000C7010E94191A8091E8008E778093E800A0
:101AB0001F701093E9000E949E1C882309F431CB0B
:101AC0000E94052720913502211176C00091310234
:101AD0001091320220913302309134025B016C018B
:101AE000A01AB10AC20AD30A44EFA41641E0B40610
:101AF000C104D10408F460C06093310270933202D3
:101B0000809333029093340280912F02909130029F
:101B100001969093300280932F021982870121E071
:101B200040E050E060E088E00E943A1C811106C06D
:101B300080912F02909130020A97F4F181E0809316
:101B4000350280933B029981911101C080E080931E
:101B50003C0280913A02882331F00E94301D882394
:101B600021F012E003C010E001C011E080913C02BE
:101B7000882331F00E94301D882321F081E003C0CA
:101B800080E001C082E0182B86E290E00E94CA3417
:101B9000882E912CA12CB12CD501C4018C7FBC01C5
:101BA000CD01612B681579058A059B0511F00E940E
:101BB000572881E00E94EE2A80913C02882309F494
:101BC000B0CA0E9405274B015C01809136029091BA
:101BD0003702A0913802B0913902A5019401281B67
:101BE000390B4A0B5B0B243031054105510570F16F
:101BF00019821A821B821C82870124E040E050E097
:101C000060E089E00E943A1C8823C1F069817A81F2
:101C100080914102909142020E94902B9093420247
:101C2000809341026B817C818091430290914402B8
:101C30000E94902B9093440280934302809236023C
:101C400090923702A0923802B092390280914602F7
:101C5000882309F466CA80914502898300E010E078
:101C600020E0A70161E08AE00E943A1C882309F481
:101C700058CA1092460255CA09BD19BD09B400FEE2
:101C8000FDCF8091D8008F7D8093D8008091E000B7
:101C900082608093E0008091E00081FDFCCF109293
:101CA0005E020E949B2444CA86E290E00E94CA34ED
:101CB0001B821C821D828E83DACE3F924F925F92EE
:101CC0006F927F928F929F92AF92BF92CF92DF924C
:101CD000EF92FF920F931F93CF93DF93CDB7DEB7B1
:101CE00067970FB6F894DEBF0FBECDBFFC018081B1
:101CF000918123813481232B31F09F3F31F491E096
:101D00008F3F19F403C091E001C090E090FDE2C55F
:101D10008F0185E0DE01539601900D928A95E1F7DF
:101D2000D80112962C918B899C89222349F00E941C
:101D3000CC21F82E682F8B899C890E94022403C035
:101D40000E94D523F82E6B897C898F2D0E94DA277B
:101D50007C01F8018281882309F409C1C7018251FD
:101D60009F45409708F046C18FEF93E00E94CA3428
:101D7000811108C1FEEEEF0E57EA852E9924939447
:101D8000EE2079F0811424E0920609F4FBC0C4012E
:101D90000E94CA34811101C0EA943FEF831A930A6A
:101DA000EFCF19821A821B821C82442443944AE09A
:101DB000342E74018FEFE81AF80AC4010E94CA3465
:101DC00089831A82882309F4DDC09FEF980F93302E
:101DD00060F48A83498292E0890E911CC7010E94B7
:101DE000CA348B83811102C0CDC04701DE01119638
:101DF0007D01F70120812223E1F2213009F058C052
:101E00008181813089F46701F2E0CF0ED11CD701C6
:101E100012968C91893319F460E570E002C065E098
:101E200070E00E94B9240AC0823051F46701B2E028
:101E3000CB0ED11CF70182810E946530760193C0E0
:101E4000833051F46701F2E0CF0ED11CD701129616
:101E50008C910E941130F2CF843021F0BFEFEB1A49
:101E6000FB0A81C0F7012281C70102967C0180E054
:101E700090E030E0205331092A30310570F4389E6B
:101E8000A001399E500D1124C901840F951FAFEF99
:101E9000EA1AFA0AF7012081ECCF009709F463C02F
:101EA000AFE9BFE01197F1F700C000000197F5CF4F
:101EB000E22FF0E0E35DFD4F5490822F86958695EA
:101EC000869590E0FC01E35EFD4F64902770712CD5
:101ED000022E02C0759467940A94E2F7B1E06B2277
:101EE0007724FC01E35FFD4FA490B12C022E02C0C9
:101EF000B594A7940A94E2F7E1E0AE22BB24FC017A
:101F0000E350FE4FC490D12C02C0D594C7942A95BB
:101F1000E2F7F1E0CF22DD246114710419F081EEC3
:101F20000E946530A114B10409F45BC086EE0E94E2
:101F3000653029E3521609F44EC065E070E0852D46
:101F40000E94B924AB2819F086EE0E941130672850
:101F500019F081EE0E941130CD2829F065E070E083
:101F60008CE20E94B9243FEFE31AF30A42CF80E1EA
:101F7000E8168FE5F80609F0A5C481E00E94422426
:101F80000E94281580914305877009F4A3C4D801E5
:101F900012968C91882309F49DC48091EA0182FDF8
:101FA00099C482E067960FB6F894DEBF0FBECDBF2E
:101FB000DF91CF911F910F91FF90EF90DF90CF9025
:101FC000BF90AF909F908F907F906F905F904F9059
:101FD0003F900C944E2460E570E089E30E94B924A0
:101FE000B3CFF9E35F12A9CF60E570E089E30E9407
:101FF000B924ADCF20E1E2162FE5F20611F481E01D
:1020000006C031E1E3163FE5F30621F482E00E94C9
:102010008824B6CFF0925302E0925202F8018081F8
:1020200091819093550280935402C7019A9581152E
:102030009F4108F099C0F701FF27E43FF10508F43C
:1020400047C0E93FF10540F0EC3A8DE5F80709F0AB
:102050003FC0F80182816FC0E45FF10981E090E048
:102060009C0101C0220FEA95EAF7D80112964C9123
:1020700086E0E3E0F6E0DE01179601900D928A9586
:10208000E1F786E0FE013796DE011D9601900D9284
:102090008A95E1F79885442319F0892F822B03C094
:1020A000822F809589238E8796E0FE013D96DE0182
:1020B000119601900D929A95E1F78A8386E0FE01D0
:1020C0003196A3E0B6E001900D928A95E1F74EC0FB
:1020D000D80112968C91882309F464C0E55AFD4515
:1020E000EA30F10508F042C0E759FF4F0C94403543
:1020F00080E00E94202B10924C0244CF4091450278
:1021000050914C0250FB47F95695537060E070E0D7
:102110008FE090E00E94F03435CF81E001C08FEF76
:102120000E94522B2FCF8AE0FBCF86EFF9CF909100
:10213000470281E089270E943E2B24CF80914C02E8
:10214000811101C084E08F5F06C080914C02811133
:1021500001C084E0815018160CF081E0883008F04E
:1021600087E080934C020ECFF70167CF26E1E2169D
:102170002CE5F20689F580915E028A7AF801928157
:102180009923A9F091E0811101C090E090935C0245
:10219000882311F065E301C069E281EF94E00E94B9
:1021A000462717C0A6E1EA16ACE5FA06A9F4809125
:1021B0005C02882311F085E301C089E2E1EFF4E0DD
:1021C0009281891301C01282319624E0E73FF20721
:1021D000B9F70E942921D6CED80112968C9181118F
:1021E000FAC080915E0282723CECE3163CE5F30695
:1021F00009F4D7C008F04FC0A6ECEA16ACE5FA0621
:1022000009F4BBC0F8F4E3ECEE16ECE5FE0609F4C5
:10221000AAC038F422ECE2162CE5F20609F479C0E3
:1022200013C134ECE3163CE5F30609F4A1C095ECC8
:10223000E9169CE5F90609F007C145EF5EE26EEF8D
:102240007EE2B3C0A9ECEA16ACE5FA0609F49FC039
:1022500088F4E7ECEE16ECE5FE0609F493C0F8EC22
:10226000EF16FCE5FF0609F0EFC049EE5EE26DED0A
:102270007EE29BC02AECE2162CE5F20609F48CC043
:102280003BECE3163CE5F30609F0DEC04FE25DE20D
:1022900060E47DE28AC081EDE8168CE5F80609F479
:1022A00071CEB8F4AEECEA16ACE5FA0609F485C0D6
:1022B00008F47EC0EFECEE16ECE5FE0609F480C0F3
:1022C000F0EDEF16FCE5FF0609F0BEC06EE089E018
:1022D0007FC024EDE2162CE5F20609F477C068F41D
:1022E00082EDE8168CE5F80609F46DC093EDE91669
:1022F0009CE5F90609F446CEA7C0A5EDEA16ACE5C3
:10230000FA0609F43FCEBDE5EB16FB0609F43ACE1A
:102310009BC08091E20580FF20C08E7F8093E20504
:102320006091E2057091E3058091E4059091E505E7
:102330000E941D2D0E94B9288091500581608093D4
:102340005005EFEFF0E722E0E150F0402040E1F7E8
:1023500000C000000E949C2C15CE81608093E20595
:1023600061E0869527C04EEF5FE267E070E31DC035
:1023700047E050E36EEF7FE218C04EEF5EE265EF9C
:102380007EE213C04DED5EE269EE7EE20EC045ECEA
:102390005EE261ED7EE209C041ED5EE265EC7EE267
:1023A00004C040E45DE26FE27DE20E94B328EACD22
:1023B00061E081E00E94BE2FE5CD65E082E008C0CB
:1023C00068E086E005C061E18FE002C06BE182E178
:1023D0000E94A128D7CD3AE5E3163DE5F30679F151
:1023E00060F4E1149CE5F906D1F0AEEDEA16ACE537
:1023F000FA0651F50E94B220C5CDBBE5EB16BDE54E
:10240000FB06F9F0ECE5EE16EDE5FE06E9F4809149
:10241000EA0182FB882780F991E0892713C0109296
:102420005E020E949B24FFEF24E33CE0F150204039
:102430003040E1F700C000000E94BF26A3CD81E03C
:1024400001C080E00E946B24F8018281E080F1806D
:10245000882349F0C7010E94CC21D82E682FC701DC
:102460000E94022404C0C7010E94D523D82EB701C0
:102470008D2D0E94DA270E945D1D7C01982EF801A7
:10248000B280A580A2943FE0A3228091430587708B
:10249000B9F0BB20A9F08F2D807F803421F080E23D
:1024A0008E0D883068F08091EA0182FD09C082E0DB
:1024B0000E944E24809143058770DD24D3948111BE
:1024C000D12CCF2CC2942FE0C2228C2D90E08C30E6
:1024D000910508F0C2C1FC01ED58FF4F0C94403546
:1024E0008F2D807F9F2D9F70F92E882319F0F294F5
:1024F00090EFF922BB20B9F0FF2009F497C180E2E8
:102500008E0D883010F0911006C080915E02F82A7E
:10251000F0925E0205C080914505F82AF0924505CB
:102520000E94292183C18E2D0E941130FF2009F4C1
:1025300094C180E28E0D883098F1992089F1F09451
:1025400080914505F822F09245052DC08F2D807FA2
:102550009F2D9F70F92E803219F0F29480EFF822AF
:102560008E2D992021F0F1E09F16D9F149C080917C
:10257000EA0182FF1BC0BB2069F0FF2039F0809187
:102580005E02F82AF0925E020E94292180E00E94F9
:10259000653063C180E00E941130FF2009F45DC105
:1025A0008F2D0E9422210E94292157C1BB2081F03A
:1025B00080914605AA2051F021E0A21207C0F82A16
:1025C000F81609F44AC1F092460547C18F2910C098
:1025D000AA2021F031E0A31609F43FC10E941C217A
:1025E0002AC0BB2041F085E08A1508F436C18F2D42
:1025F0000E94AF2432C194E09A1508F42EC11BC08A
:10260000BB2061F0AA2099F3D80115968C911597FB
:1026100080FF0CC18F7015968C93E9CFAA2059F0DA
:10262000893309F011C1BFEFE7EEF3E0B150E040AC
:10263000F040E1F70DC18F2D0E94A8240EC18F2D0F
:102640008370B1F5B1100DC14E2D4295469547707E
:10265000440F440F8E2D8F7090E09C01042E01C01A
:10266000220F0A94EAF7E4FE08C08FE090E001C070
:10267000880F4A95EAF7809501C080E04F2D469576
:1026800046954370423069F088F490914705413097
:1026900019F0822B892302C0922B892B0E9493244C
:1026A000E0C0822B909147058927F8CF822BF6CF87
:1026B000BB2019F08F2D817001C08695882309F405
:1026C000D0C04E2D429546954770440F440F8E2D35
:1026D0008F7090E09C01042E01C0220F0A94EAF74B
:1026E000E4FE08C08FE090E001C0880F4A95EAF749
:1026F000809501C080E04F2D46954695437042304D
:1027000059F078F490917502413019F0822B8923A9
:1027100009C0922B892B06C0822B909175028927C4
:1027200001C0822B0E942E249CC09F2D9F70F92EE9
:10273000BB2039F0892F0E9488248E2D0E94AF245F
:1027400090C08E2D0E94A8248F2D0E94422489C003
:102750008E2DA2EF9A1681F1A91538F0B0EF9B16D5
:1027600059F0E1EF9E1619F15DC0F3EF9F1659F194
:1027700024EF9216C1F056C0BB2081F034E03A1528
:1027800008F46BC02F2D2F7181E090E001C0880FFD
:102790002A95EAF790917502892720C085E08A156D
:1027A00008F45BC0EFCF8091EA0182FF1AC0BB2022
:1027B00029F08F2D8F7129C0BB20D9F38F2D8F71F8
:1027C0000E9442244AC0BB2041F09F2D9F7181E0AE
:1027D00001C0880F9A95EAF701C080E00E942E247C
:1027E0003CC0BB20A9F09F2D9F71F92E892F0E941C
:1027F00088248091EA0182FD07C0A8E0FA9EC0010A
:1028000011248360809343058F2D0E94882425C066
:1028100081E00E944E24B1E0BA15F8F482E00E94F3
:102820004E241BC0BB2021F0AA2019F28E2DAFCE62
:10283000AA2021F2893341F4EFEFF7EE23E0E150D3
:10284000F0402040E1F704C08FE19EE40197F1F7EA
:1028500000C000008E2D0E94113088EF8C0D843056
:1028600010F40E946027DD20A9F18091430580FDCE
:1028700031C0D80112961C928595859585950E9448
:102880008824C8010E945D0E809143058595859539
:10289000859567960FB6F894DEBF0FBECDBFDF916A
:1028A000CF911F910F91FF90EF90DF90CF90BF904D
:1028B000AF909F908F907F906F905F904F903F90E0
:1028C0000C94422491E1E9169FE5F90609F0A2CBA8
:1028D00082E054CB67960FB6F894DEBF0FBECDBF33
:1028E000DF91CF911F910F91FF90EF90DF90CF90EC
:1028F000BF90AF909F908F907F906F905F904F9020
:102900003F900895CF93DF938A3011F481E003C0A4
:102910008D3029F480E0DF91CF910C942728682F27
:1029200080917F049091800426E0FC01A9E7B4E047
:1029300001900D922A95E1F7603E30F026E0FC010F
:1029400011922A95E9F70AC0F6E06F9FB0011124B1
:102950006F507C4F46E050E00E94C134C0917F042C
:10296000D091800446E050E0BE0189E794E00E94E7
:102970005A35892B49F19E0129573240A90185E03A
:10298000569547958A95E1F781E090E0BC0102C039
:10299000660F771F4A95E2F74091770250917802CF
:1029A000462B572B2B5F3F4F65E0369527956A9551
:1029B000E1F702C0880F991F2A95E2F7842B952B27
:1029C00090937802809377029E0123573240409182
:1029D0007602642F70E0C9010E94AD34481B463076
:1029E00010F4240F311D211582E0380710F020E08B
:1029F00030E027583D4F3093800420937F04DF91CF
:102A0000CF910895CF93DF93EC01FE018491882349
:102A100021F00E9482142196F8CFDF91CF91089582
:102A20000F931F93CF93DF93EC01FC0101900020E3
:102A3000E9F78F0101501109C017D10720F48991DE
:102A40000E948214F9CFDF91CF911F910F910895C9
:102A500080917502982F9670963011F4886001C0AD
:102A6000877F0C942E24FC01AC014C5F5F4F8FEFED
:102A700091E32191822728E030E087FF03C0880F8F
:102A8000892701C0880F21503109B9F7E417F507EC
:102A900081F70895EF92FF920F931F93CF93DF93E7
:102AA000EC017B0164E670E088E70E9482318C01D2
:102AB000EC0EFD1ECE15DF0561F017FD0AC0FE010C
:102AC000849164E670E00E9403328C012196892B88
:102AD00089F30E948732C801DF91CF911F910F9136
:102AE000FF90EF9008951F93CF93DF93CDB7DEB79C
:102AF000AA970FB6F894DEBF0FBECDBFEDE6F2E0A9
:102B000085E792E02091F10021938E179F07D1F77E
:102B100080916E02833009F463C030F4813071F02B
:102B2000823009F49FC0B6C08A3009F48BC08B3064
:102B300009F46EC0893009F0ADC020C080916D02EB
:102B4000813A09F0A7C08091E800877F8093E80070
:102B50008091710290917202892B21F468E081E6E4
:102B600092E003C060E080E090E070E00E946126A7
:102B70008091E8008B778093E8008CC080916D0293
:102B8000813209F087C080917102909172020097A2
:102B900019F0029709F07EC08091E800877F80934A
:102BA000E8008091E80082FD05C080916B028111F0
:102BB000F8CF70C02091F3008091F20090E0922B4A
:102BC000029731F48091F100813011F0863021F4C8
:102BD0008091F100809360028091E8008B7756C06D
:102BE00080916D02813A09F055C0809171029091F7
:102BF0007202892B09F04EC08091E800877F809394
:102C0000E8008091E80080FFFCCF8091820139C00C
:102C100080916D028132F1F5809171029091720282
:102C2000892BC1F58091E800877F8093E8000E949E
:102C30000D2680916F028093820110925E020E94A5
:102C40009B2428C080916D02813221F58091E8009B
:102C5000877F8093E8000E940D2680917002809308
:102C60005F0218C080916D02813AA1F48091E80062
:102C7000877F8093E8008091E80080FFFCCF8091FF
:102C80005F028093F1008091E8008E778093E800E6
:102C90000E940D268091E80083FFDFC180916D02C4
:102CA00090916E02492F50E04A30510508F0D5C18D
:102CB000FA01E158FF4F0C944035803821F08238FA
:102CC00009F0CBC108C08091690290916A029923F2
:102CD00089F082600FC0809171028F70873008F098
:102CE000BCC18093E9008091EB0085FB882780F9C7
:102CF0001092E9009091E800977F9093E80080930C
:102D0000F1001092F10070C1282F2D7F09F0A5C1AC
:102D1000882319F0823061F0A0C180916F02813068
:102D200009F09BC1933009F080E080936A022EC0C5
:102D300080916F0281112AC0809171028F702FEFF4
:102D4000280F263008F089C18093E9002091EB001C
:102D500020FF1CC0933021F48091EB00806214C0EE
:102D60009091EB0090619093EB0021E030E0A9019D
:102D700002C0440F551F8A95E2F74093EA00109273
:102D8000EA008091EB0088608093EB001092E900EC
:102D90008091E800877F8093E8000E940D265DC146
:102DA00081115BC110916F021F778091E3008078E1
:102DB000812B8093E3008091E800877F8093E80077
:102DC0000E940D268091E80080FFFCCF8091E300F7
:102DD00080688093E300111102C082E001C083E0AB
:102DE00080936B023AC18058823008F036C120913E
:102DF0006F02309170022C3D53E0350779F583E086
:102E00008A838AE289834FB7F894DE01139620E023
:102E10003EE051E2E32FF0E050935700E49120FFB1
:102E200003C0E295EF703F5FEF708E2F90E0EA30C5
:102E300010F0C79601C0C0968D939D932F5F2431EB
:102E400049F74FBF8091E800877F8093E8006AE2EE
:102E500070E0CE0101960E946126B4C0809171029B
:102E600090917202432F552743305105A9F068F421
:102E70004130510509F400C14230510509F0EDC05F
:102E80008BE590E0E8E5F3E04BC04132510529F1D4
:102E90004232510589F1E1C0C9019927813091057C
:102EA000A1F058F0029709F0D8C0E5ECF3E0E49106
:102EB0008E2F90E0E5ECF3E030C0EDEEF3E0E4912E
:102EC0008E2F90E0EDEEF3E028C0EBEDF3E0E4911F
:102ED0008E2F90E0EBEDF3E020C08330910508F0F9
:102EE000BCC0880F991FFC01E354FE4F0190F08194
:102EF000E02D89E090E014C08330910508F0ADC06A
:102F0000FC01EE0FFF1FE954FE4F0190F081E02D10
:102F1000DC01AC54BE4F8C9190E0009709F49DC049
:102F20002091E800277F2093E800209173023091E0
:102F300074022817390708F4C90140E0009789F1A5
:102F400020916B02222309F43DC02530D9F1209154
:102F5000E80023FD37C02091E80022FD2FC020911A
:102F6000E80020FFEBCF4091F3002091F20030E029
:102F7000342B009759F02830310540F444914093A8
:102F8000F100319601972F5F3F4FF3CF41E028309A
:102F9000310509F040E02091E8002E772093E80009
:102FA000CDCF4111CDCF0AC080916B02882351F063
:102FB000853041F08091E80083FD04C08091E800F5
:102FC00082FFF2CF8091E8008B778093E80045C0C4
:102FD000803809F042C08091E800877F8093E80044
:102FE00080916C028093F1008091E8008E77D3CEBF
:102FF000811133C080916F029091700299270297DE
:1030000064F58091E800877F8093E80010916F025B
:1030100010936C020E940D26111106C08091E300EE
:1030200087FD02C081E001C084E080936B0242E032
:1030300061EC81E00E942C2642E261EC84E00E9477
:103040002C2642E261EC82E00E942C2642E260ECF7
:1030500083E00E942C2680916B028091E80083FF20
:1030600010C08091E800877F8093E8008091EB009A
:1030700080628093EB0005C082E190E0E3EBF3E037
:103080004FCFAA960FB6F894DEBF0FBECDBFDF912B
:10309000CF911F9108951F920F920FB60F92112496
:1030A0002F933F934F935F936F937F938F939F9350
:1030B000AF93BF93CF93DF93EF93FF93C091E9005A
:1030C000CF708091EC00D82FD17080FDD0E81092A5
:1030D000E9008091F000877F8093F00078940E944F
:1030E00073151092E9008091F00088608093F000E1
:1030F000CD2BCF70C093E900FF91EF91DF91CF917D
:10310000BF91AF919F918F917F916F915F914F91FF
:103110003F912F910F900FBE0F901F901895E8EDE3
:10312000F0E080818E7F80831092E2001092DA00BE
:103130001092E100A0EEB0E08C9181608C938081D0
:103140008F77808319BCA7EDB0E08C918E7F8C9334
:1031500080818F7E808310925D020895CF92DF92EE
:10316000EF92FF920F931F93CF93DF93C8EDD0E0C0
:1031700088818F7E8883E7EDF0E0808181608083A5
:1031800084E082BF81E080935D0288818E7F8883A6
:1031900002EE10E0F80110821092DA0081EEC82EE3
:1031A000D12CF601108288818F778883888180688E
:1031B000888388818F7D888319BC10926B0210925E
:1031C0006C0210926A021092690290EEE92EF12CC4
:1031D000F70180818B7F808388818160888342E0D2
:1031E00060E080E00E942C26F60180818E7F808343
:1031F000F801808181608083808188608083F7010D
:1032000080818E7F8083888180618883DF91CF91E8
:103210001F910F91FF90EF90DF90CF9008951F9234
:103220000F920FB60F9211242F933F934F935F93FA
:103230006F937F938F939F93AF93BF93EF93FF937E
:103240008091E10082FF09C08091E20082FF05C009
:103250008091E1008B7F8093E1008091DA0080FF14
:103260002AC08091D80080FF26C08091DA008E7F2E
:103270008093DA008091D90080FF18C080E189BD79
:1032800082E189BD09B400FEFDCF81E080936B022D
:1032900080915D0281110FC00E948F180E94AE18AC
:1032A0008091E20084608093E20005C019BC109216
:1032B0006B0210925D028091E10080FF17C0809147
:1032C000E20080FF13C08091E2008E7F8093E200D5
:1032D0008091E20080618093E2008091D80080625A
:1032E0008093D80019BC85E080936B028091E10047
:1032F00084FF30C08091E20084FF2CC080E189BD52
:1033000082E189BD09B400FEFDCF8091D8008F7D98
:103310008093D8008091E1008F7E8093E1008091BE
:10332000E2008F7E8093E2008091E20081608093D2
:10333000E20080916C02882311F084E007C0809144
:10334000E30087FD02C081E001C083E080936B024F
:1033500080916B028091E10083FF27C08091E200A1
:1033600083FF23C08091E100877F8093E10082E0AA
:1033700080936B0210926C028091E1008E7F8093AB
:10338000E1008091E2008E7F8093E2008091E20074
:1033900080618093E20042E060E080E00E942C26A1
:1033A0008091F00088608093F000FF91EF91BF91D1
:1033B000AF919F918F917F916F915F914F913F91CD
:1033C0002F910F900FBE0F901F9018952091E40041
:1033D0003091E50095E64091EC00842F817040FF2C
:1033E00023C08091E80080FD1DC080916B0288237E
:1033F00099F0853099F08091EB0085FD11C04091E6
:10340000E4005091E5002417350729F3915011F09D
:103410009A01E1CF84E0089582E0089583E0089561
:1034200081E0089580E008954091E80042FFDDCFFB
:103430000895EF92FF920F931F93CF93DF937C0138
:103440008B010E94E619811119C0E70101151105D0
:10345000A1F08091E80085FD0AC08091E8008E7798
:103460008093E8000E94E619882381F307C08991C0
:103470008093F10001501109E9CF80E0DF91CF91F5
:103480001F910F91FF90EF900895E0919D04EB3014
:10349000A4F48AE0E802F0011124EF5FFE4F0084FB
:1034A000F185E02D309749F020EC34E040919F0405
:1034B00060EA74E080919E0409940895ECE8F4E0D9
:1034C000828980933501838980934C01089580E03F
:1034D00008959091E90192FF0DC0282F287128309E
:1034E00019F4877F846006C0282F2471243011F4DA
:1034F0008B7F886093FF0DC0282F2871283119F425
:10350000877E846106C0282F2471243111F48B7EBC
:1035100088612091EA0120FF0DC0382F38713830C2
:1035200019F4877F816006C0382F3171313011F472
:103530008E7F886021FF0DC0282F2871283119F453
:10354000877E816106C0282F2171213111F48E7E82
:10355000886194FD877E0895AF92BF92CF92DF92EB
:10356000EF92FF920F931F93CF93DF937C015B0148
:103570006A018091F0048A3018F001E010E002C086
:103580000AE010E0C1E0D0E0F894B501C701F6010F
:1035900009957894811115C021960C171D0794F098
:1035A000CC9F9001CD9F300D300D112480E090E034
:1035B00045E34A95F1F70000019682179307C1F79A
:1035C000E3CF81E0DF91CF911F910F91FF90EF90BA
:1035D000DF90CF90BF90AF900895EF92FF920F933E
:1035E0001F93CF93DF937901C82F880FDD0B41150F
:1035F0005105A9F08AE08C9FF0018D9FF00D1124F8
:10360000EF5FFE4F8381948184579B4F228130E08E
:103610004217530708F49A01A9010E946735CE01A9
:103620000E94F533892B09F50115110501F18AE096
:103630008C9FF0018D9FF00D1124EF5FFE4F4581AF
:1036400050E00417150708F4A8018AE08C9FF001E8
:103650008D9FF00D1124EF5FFE4F668177816457D7
:103660007B4FC7010E94673502C080E001C081E046
:10367000DF91CF911F910F91FF90EF9008950F93DD
:103680001F93CF93DF93CDB7DEB728970FB6F8948B
:10369000DEBF0FBECDBF85E0E2EEF5E0DE011196A4
:1036A00001900D928A95E1F780914E0590914F051A
:1036B000A09150058E839F83A88728854091EC04B4
:1036C0005091ED046091EE047091EF043FB7F894CF
:1036D0008091F0059091F105A091F205B091F3056C
:1036E0003FBF841B950BA60BB70B84369105A10534
:1036F000B10510F42223D9F000E010E020E030E022
:1037000048E050E0BE016F5F7F4F83E00E94ED1AFA
:10371000882359F00E9405276093EC047093ED0410
:103720008093EE049093EF0402C080E003C01092F7
:10373000500581E028960FB6F894DEBF0FBECDBFCE
:10374000DF91CF911F910F910895EF92FF920F9308
:103750001F93CF93DF9300D000D01F92CDB7DEB779
:103760007B0101E010E09E012B5F3F4F40E050E005
:1037700060E070E080E00E94ED1A182F882309F4C1
:1037800045C04091E4045091E5046091E6047091D5
:10379000E7042FB7F8948091F0059091F105A0917E
:1037A000F205B091F3052FBF841B950BA60BB70B49
:1037B00084369105A105B10538F48DE894E00E94A6
:1037C00033159D81891711F104E010E09E012F5FF0
:1037D0003F4F40E050E060E070E081E00E94ED1A71
:1037E000182F8DE894E00E94331591E02D81281365
:1037F00090E0192329F10E9405276093E404709357
:10380000E5048093E6049093E7040CC080918D0456
:1038100090918E04A0918F04B091900489839A8333
:10382000AB83BC83112361F089819A81AB81BC8118
:103830008093E0049093E104A093E204B093E30446
:103840008091E0049091E104A091E204B091E3043E
:10385000F70180839183A283B383812F0F900F9010
:103860000F900F900F90DF91CF911F910F91FF90CC
:10387000EF900895AF92BF92CF92DF92EF92FF92B6
:103880000F931F93CF93DF9300D000D0CDB7DEB757
:103890008C838091F0048A3010F080E040C08C81ED
:1038A0008830DCF36132C8F72132B8F76801F22EB4
:1038B0005A01E62E89836A832B8360933501209316
:1038C0004C0100E010E020E030E043E050E0BE01B9
:1038D0006F5F7F4F84E00E94ED1A8823F1F24E2D36
:1038E00050E020E030E0B50185E00E94ED1A882329
:1038F000A1F220E030E041E050E0BE016C5F7F4F7C
:1039000086E00E94ED1A882341F20F2D10E0960107
:1039100040E050E060E070E087E00E94ED1A0F9018
:103920000F900F900F90DF91CF911F910F91FF900B
:10393000EF90DF90CF90BF90AF90089580918B046F
:10394000811118C08091D80080618093D8008AE1ED
:103950008A95F1F700C08091D90080FD02C082E015
:1039600001C081E080938B04823021F40E948F1883
:1039700010926B0281E090918B04913009F080E00D
:1039800008950F931F930E949E1C882321F01F917E
:103990000F910C9405270E9405270091E5011091D5
:1039A000E6012091E7013091E801600F711F821F4D
:1039B000931F1F910F9108950F931F93CF93DF9340
:1039C00000D000D0CDB7DEB74091E8045091E904B3
:1039D0006091EA047091EB042FB7F8948091F005A0
:1039E0009091F105A091F205B091F3052FBF841BD2
:1039F000950BA60BB70B84369105A105B10528F1EF
:103A00000E94C11CDC01CB010296A11DB11D89835E
:103A10009A83AB83BC8300E010E020E030E044E018
:103A200050E0BE016F5F7F4F82E00E94ED1A182FB9
:103A3000882361F00E9405276093E8047093E904ED
:103A40008093EA049093EB0401C011E0812F0F9062
:103A50000F900F900F90DF91CF911F910F910895CC
:103A600025982D9A869A8E9825E02A95F1F70000E0
:103A700023B186988E9A80EA8A95F1F725FB8827EC
:103A800080F990E021E0822781700895F894E82F72
:103A9000E295EF70F0E031A1282F2F7081E090E0E7
:103AA00001C0880F2A95EAF7982F9095932391A348
:103AB00092A1892B82A378940895CF93DF938238C3
:103AC000910569F1B0F48133910509F46FC048F4B0
:103AD0008932910509F465C08A32910509F46BC0F9
:103AE0006FC08533910509F457C089339105B9F04A
:103AF00067C0833E910571F138F4803E9105B1F0C5
:103B0000823E910511F15CC0863E9105B9F1873E78
:103B10009105C9F1843E910509F052C024C020915D
:103B2000E90120FD2AC121FD28C14AC08091E90197
:103B300080FD1DC18091EA0180FF1FC18091E901D4
:103B400084FD12C183EE90E02CC18091E90182FFD7
:103B500011C1F4CF8091E90182FD0CC18091EA018D
:103B600080FD0BC1EBCF8091EA0181FF0CC18091F8
:103B7000E90184FDF9C087EE90E013C18091E9016D
:103B800083FFFEC0F4CF8091E90183FDF9C08091ED
:103B9000EA0181FDF8C0EBCF8091E90185FDF6C017
:103BA000F8C08091E90185FDF4C0F0C08091E90181
:103BB00086FDF2C0F4C08091E90186FDF0C0ECC042
:103BC000811523E59207A8F5811532E5930708F0E2
:103BD00099C0811540E29407D0F4811521E0920745
:103BE00008F0DFC0853A910550F48430910508F063
:103BF000D8C0019709F0B8C081E090E0D2C09C0124
:103C0000205E31092830310508F0AEC0CAC08115E8
:103C100031E5930708F071C0811540E5940708F07D
:103C20004EC0811520E4920708F49EC09F70906AF0
:103C3000B8C0EC01811536E59307F0F4811545E530
:103C4000940708F078C0C11584E5D80708F06EC065
:103C50009E012370332781E090E002C0880F991FF6
:103C60002A95E2F7C695C69520E2C29FE00111248D
:103C70008C2B9D2B9A6895C081152AE5920778F4C4
:103C8000811539E5930708F05EC0811548E5940772
:103C900008F46AC0982F8827806F906A82C0905677
:103CA0008115904208F060C08D2F8F710E94691AB3
:103CB000282F2F71CE0199279062922B72C09C0100
:103CC00074E0369527957A95E1F7922F9370482FF7
:103CD000437021E030E002C0220F331F4A95E2F723
:103CE0003C68392B8F70982F9695969540E2949F5B
:103CF000C0011124822B932B54C0982F8827816FE9
:103D0000906A4FC0AC014370552721E030E002C0FB
:103D1000220F331F4A95E2F78695869540E2849FED
:103D2000C0011124822B932B9C683BC09C2F8827B9
:103D3000846F906A36C00E94691A8F7190E0982F44
:103D4000882790622EC08F700E94691A94E0D695E1
:103D5000C7959A95E1F7CF70D0E0DC2FCC27D069DA
:103D60009E01282BC9011DC080E090E01AC089E3A4
:103D700090E017C082EE90E014C080EE90E011C099
:103D800086EE90E00EC084EE90E00BC089E290E0F9
:103D900008C085E390E005C08AE290E002C081E3BC
:103DA00090E0DF91CF91089580E090E00E94D834B8
:103DB000893E9E4F11F40C94882880E008950E945B
:103DC0009E1C81110C9411270E94C11CCB010895E7
:103DD0007F928F929F92AF92BF92CF92DF92EF929B
:103DE000FF920F931F93CF93DF93CDB7DEB72C973E
:103DF0000FB6F894DEBF0FBECDBFAE014F5F5F4F71
:103E00007A0188E0DA011D928A95E9F706E911E066
:103E10006A018AE9A82E81E0B82E88248394912C27
:103E2000F80180818F3F09F441C0F894E82FE295B2
:103E3000EF70F0E021A18F70A40102C0440F551F64
:103E40008A95E2F7CA01922F982B91A392A18095AF
:103E5000892382A3789400C0EEE9F1E0712C31E06F
:103E600021912F3F89F0A22FA295AF70B0E09096DC
:103E70008C9190E02F7002C0959587952A95E2F776
:103E800080FD02C0832F01C080E0782A330F51E00B
:103E9000E43AF50729F7D8018C918F3F11F00E9481
:103EA000461DB0EABA95F1F7F60170820F5F1F4F19
:103EB000FFEFCF1ADF0AA016B10609F0B1CF48E034
:103EC00050E0B7018BEE91E00E945A358C01892BAE
:103ED00041F088E0F701ABEEB1E001900D928A95D8
:103EE000E1F7F090F4010115110549F081E08093AC
:103EF00083040E941127909382048093810480910F
:103F000083048823B9F080918104909182040E94F7
:103F1000F626059778F0ABEEB1E0EF2DF0E0E95D25
:103F2000FD4F8FEE91E02D9121938A179B07D9F7D2
:103F3000109283040115110509F0FDC00E949E1C1A
:103F4000E091F401882309F477C019861A861B864C
:103F50001C860E2F10E0095D1D4F8091F0048A3001
:103F600058F445EA5BE1BE01675F7F4FC8010E94DC
:103F7000AC1A8823A1F10AC0809184049091850431
:103F80000E94F626843F914060F73AC04CED5CE118
:103F9000BE01675F7F4FC8010E94AC1A8823F9F009
:103FA0004FE35BE1BE01675F7F4FC8010E94AC1A1F
:103FB0008823A9F01092F0048091F30190E044E08E
:103FC00050E0BE01675F7F4F895D9D4F0E945A356B
:103FD00021E020938A04892B01F500E0AEC0809196
:103FE000F0048F3F19F08F5F8093F0048091F0040C
:103FF0008A3010F30E9411279093850480938404E3
:1040000080918A04882349F3FE01399684E0DF0118
:104010001D928A95E9F710928A04E091F301F0E08D
:10402000E95DFD4F89859A85AB85BC858083918349
:10403000A283B38301E081C0F0E0E95DFD4FF89415
:1040400084E0ADE8B4E001900D928A95E1F78DE847
:1040500094E00E94331580938C047894F894C09077
:104060009104D0909204E0909304F0909404809195
:10407000860490918704A0918804B0918904C816A1
:10408000D906EA06FB06D1F0C0928604D0928704D6
:10409000E0928804F09289040E949E1C81110EC057
:1040A0000E940527C61AD70AE80AF90AC092E50154
:1040B000D092E601E092E701F092E8017894F8945A
:1040C00080919C048823A9F180FF10C08091950401
:1040D00080FF0AC09091E20591609093E20560E054
:1040E00086950E94BE2F02C00E94A72F80919C043B
:1040F00081FF09C020E0409198046091970480916D
:1041000096040E941C2E80919C0482FF09C080911D
:104110009B04882319F00E94C02802C00E94B9287D
:1041200080919C0483FF03C081E080934B05109233
:104130009C04789402C001E010E0802F2C960FB60A
:10414000F894DEBF0FBECDBFDF91CF911F910F91CD
:10415000FF90EF90DF90CF90BF90AF909F908F90A7
:104160007F90089569EE7EEF80E090E00E94FC343D
:1041700060E082E090E00E94DE3460E083E090E066
:104180000E94DE341092470560E084E090E00E94D7
:10419000DE3460E082E290E00E94DE3460E085E0A0
:1041A00090E00E94DE3460E086E090E00E94DE3421
:1041B0006FEF87E090E00E94DE3440E050E0BA010B
:1041C00088E090E00E94F03460E08DE090E00E9492
:1041D000DE3440E050E0BA0188E190E00E94F03423
:1041E00060E087E190E00E94DE3440E050E0BA01F8
:1041F0008CE190E00E94F03460E070E080E290E0BA
:104200000E94FC3440E050E0BA0188E190E00E9456
:10421000F03480E00E945B280E94792840E050E062
:10422000BA018FE090E00E94F03440E050E0BA0123
:1042300083E190E00C94F034809146058111109256
:1042400046050895809590915E02892380935E02D1
:10425000089590915E0280914505892B2091440537
:10426000982F922B9093F10480914605882389F032
:10427000892B8093F104E3EFF4E097E080E0915024
:1042800029F021912223D9F38F5FF9CF81110E9468
:104290001C21E091ED05F091EE05309731F00280A0
:1042A000F381E02D81EF94E0099408958091420517
:1042B00090911105891719F08F5F8770FBCF0895D2
:1042C0000F931F93CF93DF938091100582958F708A
:1042D00009F05DC080910D05882309F458C08091D4
:1042E00042051091110560910B0570910C05C0916C
:1042F0000E05D0910F0591E06F3F09F090E0292F56
:1043000006E0811709F443C0209721F07F3F21F098
:1043100030E003C031E001C0322F90E030FD34C006
:10432000089FF001099FF00D1124DF01AE5EBA4F26
:1043300011963C911197371327C03C91361324C036
:1043400012963C91129731111FC013964D915C91BA
:1043500014974C1B5D0B483C5105B0F4809110053F
:104360008F70806180931005E95EFA4F80818F70B5
:10437000806180838BE095E00E945D0EDF91CF919C
:104380001F910F910C94562101968770BACFDF913F
:10439000CF911F910F910895CF92DF92FF920F93CB
:1043A0001F93CF93DF936C010091750280914705B5
:1043B000082BC7E0D0E010E0C8010C2E02C0959594
:1043C00087950A94E2F780FD04C02197A8F7F12CA5
:1043D00009C0FC2EB6018C2F0E94DA270E945D1DB9
:1043E000019799F38F2DDF91CF911F910F91FF903E
:1043F000DF90CF900895CF93DF93EC010E94CC2102
:10440000BE010E94DA270E945D1DDF91CF910895C1
:10441000FC01808191810E94FB21292F2F70E92FBF
:10442000E295EF704E2F50E0FA013297EE30F10531
:10443000B8F4E757FF4F0C944035803F99F018F4DB
:10444000883E70F40FC0843F59F40CC0883E50F091
:10445000813F31F407C0822F869586958695089511
:1044600080E0089581E008959F92AF92BF92CF922D
:10447000DF92EF92FF920F931F93CF93DF93CDB70D
:10448000DEB761970FB6F894DEBF0FBECDBF8C01CB
:1044900085E0F801DE011D9601900D928A95E1F705
:1044A000F801E28090910B0560910C0540910E059A
:1044B00050910F054115510531F06F3F31F481E006
:1044C0009F3F19F403C081E001C080E0F82FF17034
:1044D0009F2E80FD1AC1F80130812181C380D480D4
:1044E0008BE0A82E85E0B82EF0900D05F601E41BB8
:1044F000F50BFF2009F4C6C080911005E83CF105DA
:1045000008F091C0482F407F09F050C0621311C0DD
:1045100093130FC0FE2CE1100CC08F70806180934C
:104520001005C5010E945D0E80911005F80185837C
:1045300029C1CD2831F02F3F31F481E03F3F19F4FC
:1045400003C081E001C080E080FD03C081E08E25D2
:1045500002C080E090E0F82FF170FF2E80FF1CC0B9
:10456000809142054091110556E0841709F4E8C096
:1045700090E0589FF001599FF00D1124EE5EFA4F24
:104580006181261306C06081631303C06281E61255
:1045900003C001968770E9CFFE2CEE2009F4F2C02B
:1045A0008091100581608093100549C0621306C098
:1045B000931304C0E11002C0F80186C0C8010E9434
:1045C0000822882351F1EE2041F120911005822F1D
:1045D00082958F7090E0029774F080910B05909116
:1045E0000C0598878F831986DB86CA862C87CE01B7
:1045F00007960E945D0E86E0F801ABE0B5E0019001
:104600000D928A95E1F70E9460210AC06217C9F0F5
:10461000C8010E94082281111EC0C8010E945D0EBF
:10462000FF24F394AFC0482F407F81F78BE095E0E3
:104630000E945D0E86E0F50111928A95E9F7F12C52
:10464000A1C09313E5CFE110E3CFF8018583C80142
:104650000E945D0E54C0EE2001F320911005822FC0
:1046600082958F7090E0029734F280910B059091C3
:104670000C059A8389831B82DD82CC822E83CE0136
:104680000196B7CFE83CF105D0F5FE2CEE2029F2DB
:10469000621327C0931325C02091100520FD18C078
:1046A000822F82958F70482F50E04115510581F07F
:1046B000F80125834F30510541F08F5F982F929577
:1046C000907F822F8F70892B8583C8010E945D0E99
:1046D00086E0F801ABE0B5E001900D928A95E1F734
:1046E00051C0C8010E940822811185CF8091100518
:1046F000816080931005C8010E945D0E43C086E072
:10470000F50111928A95E9F73DC0EE2009F485CFB5
:10471000C8010E940822F82E882309F47ECF86E083
:10472000F801ABE0B5E001900D928A95E1F7809138
:104730000B0590910C050E94FB210E94602122C074
:104740003D872E878D859E850E94FB21292F2295EE
:104750002F70223028F49F7039F0811105C00BC0F2
:10476000243028F49F7049F4805E883020F0C8011E
:104770000E945D0E9F2CF92C05C0F8019581907F59
:1047800099F7F9CF8F2D61960FB6F894DEBF0FBE63
:10479000CDBFDF91CF911F910F91FF90EF90DF90F0
:1047A000CF90BF90AF909F900895292F220F920F26
:1047B000990F890F682F669566956695982F977063
:1047C00083E0689FB001112440E050E080E0FB01ED
:1047D000E40FF51FE750FB4F208130E0092E02C0A7
:1047E000369527950A94E2F721703327042E01C0ED
:1047F000220F0A94EAF7822B4F5F5F4F4330510537
:1048000031F70895292F220F920F990F890FE82F62
:10481000E695E695E695877051E001C0550F8A95BB
:10482000EAF783E0E89FF0011124E750FB4F20E016
:1048300030E070E04081CB01022E02C09695879552
:104840000A94E2F7817081958427852384278193D8
:104850002F5F3F4F2330310569F70895CF93C82F5D
:104860000E94DA2A91E0833009F090E0892F0E94BB
:104870003E2BC09375021092450510924405CF91CE
:104880000C94292121E030E001C0220F8A95EAF73B
:1048900020958091750282230C942E24209143054B
:1048A0008095822380934305982F977099F430E088
:1048B000482F082E000C550B2417350759F09091FE
:1048C000EA0192FD07C08595859585950E94422451
:1048D000109243050895CF93C091EA01C2FB992736
:1048E00090F9981799F080FBC2F9C093EA016091A2
:1048F000E90184E090E00E94DE346C2F82E290E0D7
:104900000E94DE3482E0CF910C944E24CF91089522
:1049100021E030E001C0220F8A95EAF7809175020C
:10492000822B0C942E2480934705109245051092FB
:1049300044050C94292186E0E3EFF4E0DF011D92A9
:104940008A95E9F710924505109244050C942921A7
:10495000882321F00E9422210C9429210895882384
:1049600039F090915E02892B80935E020C9429218C
:1049700008951F93CF93DF93182FEB010E946530AA
:10498000209741F08FE99FE00197F1F700C0000008
:104990002197F6CF812FDF91CF911F910C94113089
:1049A000089508950895809160020895089524E07F
:1049B0002093E9002FEF3091E800215035FD06C02B
:1049C00035ED3A95F1F700002111F5CF2091E8007F
:1049D00025FF0BC040E050E066E070E00E94191A2D
:1049E0008091E8008E778093E8000895CF93DF935D
:1049F00021E02093E9002FEF3091E800215035FDB0
:104A000006C035ED3A95F1F700002111F5CF209160
:104A1000E80025FF14C0EC0140E050E068E070E0E1
:104A20000E94191A8091E8008E778093E80088E050
:104A3000FE01A1E6B2E001900D928A95E1F7DF91C7
:104A4000CF9108951F93CF93DF93EC018C81811157
:104A500009C081E08C831092E10592E0909394016B
:104A6000809393018091900190919101891770F446
:104A7000E82FF0E09F01220F331FE20FF31FEF5AE0
:104A8000FA4F1182108212828F5FF0CF10E0609196
:104A900092011617D8F5E12FF0E070E0CF010E94E7
:104AA0002C3520919001820F2091E105022E000CFF
:104AB000330B90E0E217F307E4F020919401022E0B
:104AC000000C330B2E173F07A4F09C01220F331F5D
:104AD000820F931F9C012F5A3A4F4091E5054739A9
:104AE00008F046E96091E4058091E3050E94692D94
:104AF0000BC0FC01EE0FFF1F8E0F9F1FFC01EF5A32
:104B0000FA4F1182108212821F5FC1CF0E949C2C2B
:104B1000809193012091E105280F2093E105909168
:104B20009401980F9093940119165CF4022E000CD6
:104B3000330B4091920150E0415051092417350741
:104B400034F0819580939301813009F41C82DF91C8
:104B5000CF911F910895FF920F931F93CF93DF93EF
:104B6000EC01F12C0FEF10E060919201F61608F5C0
:104B7000809190012F2D30E0280F311DC901880F41
:104B8000991F280F391F2F5A3A4F4091E505473991
:104B900008F046E970E0C8010E942C35962F8C8100
:104BA0006091E405F99E800D11240E94692DF39413
:104BB000DBCF0E949C2C9A818C8190FF02C08F5F7A
:104BC00001C081508C83DF91CF911F910F91FF9095
:104BD0000895CF93DF93EC01E2EEF5E0438162812B
:104BE0008C810E94FF2D8C818F5F8C83DF91CF9110
:104BF0000895CF93DF93EC01EC81F0E0EF5CF64F8A
:104C00004491E2EEF5E0628181810E94FF2D8C816A
:104C10008F5F8C83DF91CF91089580916D0287FF24
:104C200011C08091E80082FD05C080916B02811166
:104C3000F8CF11C08091E8008B770BC080916B0298
:104C4000882349F08091E80080FFF8CF8091E80048
:104C50008E778093E8000895982F973068F59093A9
:104C6000E900981739F07091EC002091ED00509117
:104C7000F00003C0242F762F50E021FD02C09F5F7B
:104C8000ECCF3091EB003E7F3093EB003091ED00A4
:104C90003D7F3093ED003091EB0031603093EB00BD
:104CA0007093EC002093ED005093F0002091EE0003
:104CB00027FDE5CF80E008958F708093E90081E0C3
:104CC000089520917302309174022617370748F037
:104CD0006115710539F42091E8002E772093E800E2
:104CE00001C0B901FC0120E06115710579F18091E5
:104CF0006B028823F1F18530F1F18091E80083FDAA
:104D00003CC08091E80082FD2EC08091E80080FFC9
:104D1000EBCF2091F3008091F20090E0922B61158F
:104D2000710551F08830910538F421912093F100FC
:104D3000615071090196F3CF21E0089709F020E056
:104D40008091E8008E778093E800CECF2111CFCFFD
:104D50000AC080916B02882361F0853061F08091F8
:104D6000E80083FD0AC08091E80082FFF2CF80E076
:104D7000089582E0089583E0089581E0089587E72B
:104D800097E790930108809300089AE088E10FB6B6
:104D9000F894A895809360000FBE90936000FFCFB9
:104DA00078941F920F920FB60F9211248F939F93B6
:104DB000AF93BF938091F0059091F105A091F2051A
:104DC000B091F3050196A11DB11D8093F00590935C
:104DD000F105A093F205B093F305BF91AF919F91B8
:104DE0008F910F900FBE0F901F9018959C014FB799
:104DF000F8948091F0059091F105A091F205B091A1
:104E0000F3054FBF821B930B08952FB7F894609161
:104E1000F0057091F1058091F2059091F3052FBF97
:104E200008952FB7F8948091F0059091F105A09125
:104E3000F205B091F3052FBF08951F920F920FB6A0
:104E40000F9211248F939F93AF93BF938091EF059F
:104E5000811113C08091F0059091F105A091F205A8
:104E6000B091F3054196A11DB11D8093F00590937B
:104E7000F105A093F205B093F305BF91AF919F9117
:104E80008F910F900FBE0F901F9018959C01FC0101
:104E900032969FEF80E04191461789F09F3F19F4C9
:104EA000411101C0982F8F5F8630A9F79F3F39F0DD
:104EB000F901E90FF11D97FDFA95628308950895B0
:104EC0000E949E1C882351F0E091ED05F091EE05C3
:104ED000309721F00190F081E02D099480E0089551
:104EE000CF93DF93C7EAD1E060E0CE010E94DE34C9
:104EF0002196C11584E0D807B9F7DF91CF910895C5
:104F0000CF92DF92EF92FF920F931F93CF93DF9395
:104F1000C0E0D0E08E01005A1F4F6E018CE0C80E39
:104F2000D11CFE01EB5CF54FE590F4906F2DCE01A6
:104F300087960E94DE346E2DCE0188960E94DE3464
:104F40002296CC15DD0569F70C171D0731F7E8012E
:104F500000381140F9F6DF91CF911F910F91FF902A
:104F6000EF90DF90CF9008950F931F93CF93DF932F
:104F7000C42FD0E0CC0FDD1F2CE0629FC00DD11DEF
:104F8000112430E6839FC00DD11D1124CE018796D8
:104F90000E94CA34082F10E0102F0027CE018896F7
:104FA0000E94CA349801282BC901DF91CF911F912B
:104FB0000F910895462F843038F4783028F4663005
:104FC00018F4672F0C94B42780E090E00895809146
:104FD000EC059091EB05882389F0992369F062E054
:104FE00070E083E39AE00E944A15892B19F08091C2
:104FF000EB0508951092EB059091EB0581E0892770
:1050000008958091EC058823F9F00E940527DC01C2
:10501000CB01805A9541AF4FBF4F8093E7059093E6
:10502000E805A093E905B093EA058091EB058111AD
:105030000BC062E070E081E39AE00E944A15892B80
:1050400019F481E08093EB058091EB050895CF93EF
:10505000E82F20917F0430918004295732404091FD
:105060007602642F70E0C9010E94AD34481B842F82
:10507000EE2351F066E00E941235C82FC150A8F00F
:1050800080E20E948214FACFA901480F511D4115F8
:10509000524018F080E020E030E0280F311D275802
:1050A0003D4F3093800420937F04CF91089586E292
:1050B00090E00C94DE34CF93C82F811102C06FEFC3
:1050C00001C063E283E290E00E94DE34C11102C0BD
:1050D0006FEF01C068E084E290E00E94DE34C1110D
:1050E00002C06FEF01C066E285E290E0CF910C94C0
:1050F000DE3480E00E945B2860E070E0CB010E941B
:1051000057280E9480270E94702781E00C945B281A
:1051100083E290E00E94CA34833281F484E290E01A
:105120000E94CA34883051F485E290E00E94CA346B
:1051300091E0863209F090E0892F01C080E0817013
:1051400008959091E20590FF04C09695981740F05D
:1051500003C0811105C090E0961710F40C9407303D
:1051600061E00C94BE2F882311F0FA0101C0FB010D
:105170000994EEE4F5E011828281846082830895CF
:105180006091E205669570E04BE050E083E891E0C5
:105190000E944D35892B19F481E080934F050E94C0
:1051A000DF1E9093490580934805809150058460E7
:1051B000809350050895CF93DF93EAE3F2E0838173
:1051C0009481A581B681E90188839983AA83BB83F1
:1051D0001482138216821582DF91CF910895FC010B
:1051E000DB012281338121388FEF38072CF0203802
:1051F000310524F4922F03C091E801C09FE7129675
:105200009C9312972081318121388FEF38072CF041
:10521000203831051CF02FE701C021E813962C93AC
:105220001397442339F0919512969C9312972195E8
:1052300013962C9311821082138212820895CF92BA
:10524000DF92EF92FF920F931F93CF93DF93FC01B6
:10525000EB0190914C02911101C094E06081718149
:1052600091509B01092E02C0359527950A94E2F7CB
:10527000D901092E02C0AA0FBB1F0A94E2F76A1BCC
:105280007B0B71836083628173818B01092E02C065
:10529000159507950A94E2F7D80102C0AA0FBB1F23
:1052A0009A95E2F76A1B7B0B738362830138BFEF29
:1052B0001B072CF00038110524F4802F03C081E86F
:1052C00001C08FE78D8321389FEF39072CF02038FC
:1052D00031051CF02FE701C021E8922F91959C83A6
:1052E000442319F081958D832C830E9405272D81FD
:1052F000211103C02C81222349F060934D02709349
:105300004E0280934F029093500215C0C0904D0200
:10531000D0904E02E0904F02F0905002DC01CB01A1
:105320008C199D09AE09BF0984369105A105B10507
:1053300010F010925102809151029BE0980F97312A
:1053400020F4080F009351021D82DF91CF911F912D
:105350000F91FF90EF90DF90CF90089528E030E01C
:1053600043E060E086E30C94AB30CF93DF93D82F1B
:10537000C62F0E94AE298D2F80680E9424318C2F69
:105380000E9424310E9454318FEC92E00197F1F792
:1053900000C00000DF91CF910895CF93C82F0E94E5
:1053A000AE298C2F8F770E9424318FE792E00197EE
:1053B000F1F700C000000E943C31C82F0E94543118
:1053C0009AE69A95F1F700C08C2FCF910895CF936C
:1053D000DF930E94A330269A0E94AE296AE58AE3F1
:1053E0000E94B5292FEF80E792E021508040904045
:1053F000E1F700C0000082E00E94CD2983E00E9416
:10540000CD2984E00E94CD2985E00E94CD2986E047
:105410000E94CD2960E080E10E94B52980E00E94D1
:10542000CD29D82F81E00E94CD29C82F0E94543168
:10543000D23419F481E0C13009F080E081708093AA
:105440003A02882351F064E08FE00E94B52960E0C1
:1054500080E5DF91CF910C94B529DF91CF9108952C
:105460001F93CF93DF93CDB7DEB767970FB6F8944E
:10547000DEBF0FBECDBF4B8B5C8B6D8B7E8B8F8B5E
:1054800061111092450586E09E01235F3F4FD901CF
:10549000E82F1D92EA95E9F795E0FE017396D90190
:1054A00001900D929A95E1F79C894E895F897B89DD
:1054B0007D879E876F87598B488BF901DE01179690
:1054C00001900D928A95E1F7CE0107960E94342251
:1054D00081113EC086E0FE013796DE0111960190F3
:1054E0000D928A95E1F7FF81E8856A857B856115D4
:1054F000710531F0EF3F31F481E0FF3F19F403C053
:1055000081E001C080E080FD23C02091110530E0E2
:10551000C9010196877099274091420550E0841790
:10552000950779F1F983EA837D836C8396E0929FF6
:10553000D001939FB00D1124AE5EBA4FFE0131969B
:1055400001900D929A95E1F7809311050E945621E2
:1055500016E08091420590911105891709F1189F75
:10556000C00111248E5E9A4F0E9434228823C1F01C
:105570008091420590E001968770992780934205BB
:10558000E8CF10925E020E949B24109211051092A7
:105590004205EBE0F5E086E0DF011D928A95E9F730
:1055A00067960FB6F894DEBF0FBECDBFDF91CF91E7
:1055B0001F910895982F92959F7019F0892F24E0DC
:1055C00001C020E0982F9695969511F02E5F892FB7
:1055D000982F969509F02F5F822F0895CF93DF9330
:1055E00080913A02811102C0D8E101C0D6E18091D8
:1055F0003B02882331F080913C02811104C0C8E154
:1056000003C0C0E001C0C6E10E94301D811102C08C
:105610008C2F01C080E080938E01D0938F01CD0F3D
:1056200010929001C0939101C0939201DF91CF91AC
:10563000089580913A02F901808382E00C94EE2A69
:10564000893708F088E78093450291E090934602FD
:1056500090913A02992369F0882319F06FEF680F4F
:1056600001C064E08FE00E94B52960E080E50C9401
:10567000B5290895FB0180810C94202BCF93C82F6E
:10568000809147028C1751F00E94052760934802D1
:105690007093490280934A0290934B02C093470251
:1056A000CF91089520914502211101C025E0082ED7
:1056B000000C990B820F911D1816190614F081E049
:1056C00090E00C94202B382F87FF03C031952DE2FA
:1056D00001C020E24AE0832F642F0E941E35905DB6
:1056E0009093F705811104C02093F60520E20CC0C9
:1056F000642F0E941E35905D9093F605832F64E61B
:105700000E941E35811104C02093F50520E203C0DC
:10571000805D8093F5052093F40584EF95E008956E
:105720009C01860F971F37FD07C077FD0CC097FFC0
:105730000AC08FEF9FE707C077FF05C097FD03C042
:1057400080E090E808950895CF92DF92EF92FF9263
:105750000F931F93CF93DF93CDB7DEB72C970FB680
:10576000F894DEBF0FBECDBF4F83588769877A8715
:105770008B879C8780913A02882309F443C00E945A
:10578000AE2980E50E9424318AEB8A95F1F700C0AA
:105790000E943C31887899278038910519F00E9441
:1057A000543130C00E943C310E943C318C010E9437
:1057B0003C31E12CF12CF82EE02AF12A0E943C31F8
:1057C0008C010E943C3120E030E0382F022B132B5B
:1057D0000E945431F894B70180913D0290913E02AD
:1057E0000E94902B90933E0280933D02B8018091DD
:1057F0003F02909140020E94902B90934002809330
:105800003F0278940E949E1C882309F475C00E9470
:1058100005270091F9051091FA052091FB053091BB
:10582000FC056B017C01C01AD10AE20AF30A970158
:105830008601083011052105310508F45DC060932B
:10584000F9057093FA058093FB059093FC05009190
:1058500048021091490220914A0230914B02DC012A
:10586000CB01801B910BA20BB30BC297A105B10515
:1058700080F410923E0210923D021092400210926B
:105880003F02109242021092410210924402109282
:105890004302109147020E94301D482F112341F00E
:1058A000BE01695F7F4F8DE392E00E941F2907C010
:1058B000BE01695F7F4F8DE392E00E94EF28009167
:1058C000470210913A020E94301D41E04827BE0174
:1058D000695F7F4F81E492E0011719F00E941F2950
:1058E00002C00E94EF2886E0FE013796A6E5B2E0EE
:1058F00001900D928A95E1F786E0FE013796DE0170
:10590000119601900D928A95E1F729813A814B8198
:105910005C816D817E8180E090E02C960FB6F894DA
:10592000DEBF0FBECDBFDF91CF911F910F91FF90D2
:10593000EF90DF90CF90089530918F018091E20534
:1059400080FF16C0E0918E0163E0E69FF001112414
:10595000EF5AFA4F539A8BB1877F9BB198602FB75C
:10596000F894AF0163E0369F400D511D112414C01F
:105970008091900190919101891720F7E82FF0E034
:10598000AF01440F551FE40FF51FEF5AFA4F118274
:10599000108212828F5FF0CFE417F50789F0319102
:1059A00068E09BB9000000C037FF8BB9330F0000DF
:1059B00000C000C000C08BB900C06A9591F7ECCF61
:1059C0002FBF8FE594E00197F1F700C00000089524
:1059D0009091E20590FF16C0909190012091910165
:1059E000921770F4E92FF0E0DF01AA0FBB1FEA0F56
:1059F000FB1FEF5AFA4F8183608342839F5FF0CF92
:105A00000C949C2C08958091E205282F269530E077
:105A10002115310519F48170826005C02C313105E2
:105A200024F0817086638093E2058091E5058739D3
:105A300018F086E98093E5050895CF92DF92EF9202
:105A4000FF926B017C010E94032DB701A60188E043
:105A500090E0FF90EF90DF90CF900C94F034809125
:105A6000E605882319F081508093E6056091E205F0
:105A70007091E3058091E4059091E5050C941D2D4E
:105A80008091E605833018F48F5F8093E60560917E
:105A9000E2057091E3058091E4059091E5050C9491
:105AA0001D2DE2EEF5E083E0808311828FEF82838B
:105AB00086E983831482AEE4B5E012968C91129746
:105AC000836012968C9360817181828193810C94A2
:105AD0001D2DAF92BF92CF92DF92EF92FF920F9364
